:020000040800F2
:100000000004002053010008092300080B23000806
:100010000F23000813230008172300080000000026
:100020000000000000000000000000001B2300088A
:100030001D23000800000000235C0008B91200081E
:1000400073010008730100087301000873010008C0
:1000500073010008730100087301000873010008B0
:1000600073010008730100087301000873010008A0
:100070007301000873010008730100087301000890
:1000800073010008730100081F23000873010008B2
:100090007301000873010008730100087301000870
:1000A0007301000873010008730100087301000860
:1000B0007301000873010008730100087301000850
:1000C0007301000873010008730100087301000840
:1000D000730100087301000869150008091700087A
:1000E0007301000873010008730100087301000820
:1000F0007301000873010008730100087301000810
:1001000073010008730100087301000873010008FF
:1001100073010008730100087301000873010008EF
:1001200073010008730100087301000873010008DF
:10013000DFF80CD006F0D0F9004800477D20000819
:10014000E853002030BF72B662B680F3088870476B
:10015000704708488047084981F3088807480047E6
:10016000FEE7FEE7FEE7FEE7FEE7FEE7FEE7FEE767
:10017000FEE7FEE751010008E853002031010008C6
:1001800031490143314A1160704770B500210023A5
:100190000F22C47804B32D4C246804F4E064C4F541
:1001A000E064210AC1F10403CA40447804FA03F16F
:1001B0008478144021430901254C0678A155047820
:1001C00004F01F050124AC4005786D11AD0005F168
:1001D000E025C5F8004109E0047804F01F0501247A
:1001E000AC401C4D0678761145F8264070BD1A4A81
:1001F0000A400243154B1B1F1A60704739B1134A5E
:10020000121D12680243114B1B1D1A6006E00F4AB3
:10021000121D126882430D4B1B1D1A607047042883
:1002200008D14FF0E021096941F004014FF0E022CC
:10023000116107E04FF0E021096921F004014FF05E
:10024000E0221161704700000000FA050CED00E0AB
:1002500000E400E080E100E080FFFF1F10B50446ED
:10026000CC48844208D10121042000F02DFB00215C
:10027000042000F029FB46E0C748844208D1012150
:10028000082000F021FB0021082000F01DFB3AE0CF
:10029000C248844208D10121102000F015FB002142
:1002A000102000F011FB2EE0BD48844208D101214E
:1002B000202000F009FB0021202000F005FB22E0B7
:1002C000B848844208D10121402000F0FDFA002105
:1002D000402000F0F9FA16E0B348844208D1012129
:1002E000802000F0F1FA0021802000F0EDFA0AE011
:1002F000AE48844207D10121801500F0E5FA0021C3
:10030000A01500F0E1FA10BD10B50121084600F07B
:10031000DBFA0021012000F0D7FA10BD2DE9F041F1
:10032000024600250026002000230024002791F823
:1003300003C00CF00F0591F803C00CF0100CBCF1D9
:10034000000F03D091F802C04CEA050591F800C0F7
:10035000BCF1000F31D0146800202BE04FF0010CED
:100360000CFA00F3B1F800C00CEA03069E4220D15B
:1003700083004FF00F0C0CFA03F7BC4305FA03FCA3
:100380004CEA040491F803C0BCF1280F06D14FF0E9
:10039000010C0CFA00FCC2F814C00AE091F803C08A
:1003A000BCF1480F05D14FF0010C0CFA00FCC2F86B
:1003B00010C0401C0828D1D31460B1F800C0BCF1B3
:1003C000FF0F34DD546800202EE000F1080C4FF0E0
:1003D000010808FA0CF3B1F800C00CEA03069E42CB
:1003E00021D183004FF00F0C0CFA03F7BC4305FA40
:1003F00003FC4CEA040491F803C0BCF1280F05D1BA
:1004000000F1080C08FA0CF8C2F8148091F803C047
:10041000BCF1480F07D100F1080C4FF0010808FAB1
:100420000CF8C2F81080401C0828CED35460BDE8F8
:10043000F0814FF6FF710180022181700421C170AB
:1004400070470246002093680B400BB1012000E08A
:10045000002070470146886880B27047024600203D
:10046000D3680B400BB1012000E00020704701462B
:10047000C86880B2704701617047416170470AB136
:10048000016100E041617047C16070474FF4803204
:100490000A43826181618261826982697047024692
:1004A0000020434B18684FF68073184040EA021052
:1004B00008433F4B186070473E49C8617047F0B52C
:1004C0000A46002300240021002500F00046B6F172
:1004D000004F02D1364EF16901E0354E7168C0F32C
:1004E000034583B200F44016B6F5401F08D121F051
:1004F00070612F4E766826F070662D4F7E6012E098
:1005000000F48016B6F5801F06D1032606FA05F41E
:10051000A14341F0706106E0460D360103FA06F68C
:10052000B14341F0706122B1460D360103FA06F67F
:10053000314300F00046B6F1004F02D11C4EF1618C
:1005400001E01B4E7160F0BD30B500228B071C0F1F
:100550000F2303FA04F2164B08338C1053F824309F
:100560009343134C08348D1044F8253023468C10E7
:1005700053F824308C07240F00FA04F423430C4C66
:1005800008348D1044F8253030BD0A49DC3108604C
:100590007047000000080140000C014000100140BD
:1005A0000014014000180140001C014000200140DF
:1005B0000000014000002042DF48006840F00100D8
:1005C000DD49086008464068DC490840DA4948606F
:1005D00008460068DA490840D749086008460068BC
:1005E00020F4802008600846406820F4FE0048603F
:1005F0004FF41F0088607047CF49096821F48031AB
:10060000CD4A11601146096821F480211160B0F5CE
:10061000803F03D0B0F5802F0ED106E0C6490968AF
:1006200041F48031C44A116007E0C349096841F4CC
:10063000A021C14A116000E000BF00BF704710B5A3
:1006400001460022002300204A11012A02D1BA4C9F
:10065000236806E0022A02D1B74C236A01E0B64CB7
:10066000636A01F01F02012494401C400CB1012078
:1006700000E0002010BD38B50020009000240025C7
:1006800000BF3120FFF7DBFF05460098401C0090BB
:100690000098B0F5A06F01D0002DF2D03120FFF707
:1006A000CEFF08B1012400E00024204638BD0146F9
:1006B0000020A14A106820F0F80040EAC100106054
:1006C0007047A04908607047024600209A4B58685E
:1006D00020F47C1042EA01031843974B586070479E
:1006E00098490866704701460020934A506820F0F8
:1006F00003000843506070478F48406800F00C00CA
:100700007047014600208C4A506820F0F0000843F2
:100710005060704701460020874A506820F4E0602E
:1007200008435060704701460020834A506820F417
:10073000605040EAC1005060704729B17E4A527A49
:1007400002437D4B5A7204E07B4A527A82437A4BD1
:100750005A7270477B49D8310860704701460020C3
:10076000754A506820F440400843506070470021AB
:10077000714A20321170704A82F82010012802D08C
:1007800004280AD104E001216B4A2032117005E0EF
:100790000521694A2032117000E000BF00BF704798
:1007A0006949086070476449096A0143624A1162F5
:1007B0007047654944390860704730B50021002210
:1007C000002400235C4D6D6805F00C0121B1042963
:1007D00005D0082923D105E05C4D056022E05B4D82
:1007E00005601FE0544D6D6805F47012524D6D6840
:1007F00005F48034022505EB92421CB9544D554353
:1008000005600BE04C4D6D6805F400351DB1504D91
:100810005543056002E04D4D5543056002E04B4DE8
:10082000056000BF00BF444D6D6805F0F001090987
:10083000484D6B5C0568DD4045603F4D6D6805F4D3
:10084000E061090A434D6B5C4568DD4085603A4DC7
:100850006D6805F46051C90A3E4D6B5C4568DD402A
:10086000C560354D6D6805F44041890B3A4D6B5CB0
:10087000C568B5FBF3F5056130BD29B12E4A526953
:1008800002432D4B5A6104E02B4A526982432A4BA2
:100890005A61704729B1284A92690243264B9A61EE
:1008A00004E0254A92698243234B9A61704729B13B
:1008B000214AD2690243204BDA6104E01E4AD26920
:1008C00082431D4BDA61704729B11B4AD26802434B
:1008D000194BDA6004E0184AD2688243164BDA609A
:1008E000704729B1144A12690243134B1A6104E09C
:1008F000114A12698243104B1A61704712494039FC
:10090000086070470F49C86470470B49C871704749
:100910000948406A40F080700749486270470146C4
:100920000020054A92680A400AB1012000E0002038
:100930007047014988727047001002400000FFF8BC
:10094000FFFFF6FE000042428004424200127A009D
:1009500000093D00000000201000002001684FF653
:10096000FE72114001600021016041608160C16040
:100970008D49884208D18C490839496841F00F01F6
:10098000894A083A51608AE087491431884208D17F
:1009900085490839496841F0F001834A083A5160B5
:1009A0007DE081492831884208D17F49083949686A
:1009B00041F470617C4A083A516070E07A493C31F8
:1009C000884208D178490839496841F47041764A2B
:1009D000083A516063E074495031884208D1724945
:1009E0000839496841F470216F4A083A516056E06D
:1009F0006D496431884208D16B490839496841F42E
:100A00007001694A083A516049E067497831884283
:100A100008D165490839496841F07061624A083A6D
:100A200051603CE06149884206D1011F096841F0EC
:100A30000F01021F116032E05C491431884208D175
:100A40005A49091F096841F0F001584A121F116004
:100A500025E056492831884208D15449091F0968C0
:100A600041F47061514A121F116018E04F493C3146
:100A7000884208D14D49091F096841F470414B4A29
:100A8000121F11600BE049495031884207D1474994
:100A9000091F096841F47021444A121F1160704710
:100AA00010B50022026847F6F0739A430C6A8B680F
:100AB00023430C6923434C6923438C692343CC694A
:100AC00023434C6A23438C6A23431A430260CB6856
:100AD00043600B6883604B68C36010BD00210160F8
:100AE00041608160C160016141618161C1610162F8
:100AF00041628162704721B1026842F001020260E6
:100B000004E002684FF6FE731A40026070471AB1A3
:100B100003680B43036002E003688B430360704784
:100B2000416070470146486880B270470146002026
:100B3000002201F080531BB11C4B083B1A6802E0F5
:100B4000194B083B1A6802EA01030BB1012000E0CF
:100B50000020704700F0805119B11449091F086046
:100B600002E0114908394860704701460020002220
:100B700001F080531BB10D4B083B1A6802E00A4B91
:100B8000083B1A6802EA01030BB1012000E00020D3
:100B9000704700F0805119B10449091F086002E054
:100BA00001490839486070470800024008040240C3
:100BB00010B50446FA48844208D101214015FFF7D8
:100BC00083FE00216015FFF77FFE17E0F5488442A1
:100BD00008D101210015FFF777FE00212015FFF74E
:100BE00073FE0BE0F048844208D10121C803FFF7EF
:100BF0006BFE00214FF40040FFF766FE10BD30B5DC
:100C00000246002000235068E84C20400D790C6813
:100C100044EA0524204350609068E54C2040D1E927
:100C200002542C434D7944EA450420439060D06A35
:100C300020F470000C7C641EE4B2234340EA0350AD
:100C4000D06230BD00210160017141718160C160DD
:100C500001210174704721B1826842F00102826073
:100C600003E0826822F001028260704721B182684D
:100C700042F48072826003E0826822F480728260B3
:100C8000704710B50023CBB21AB144681C434460CE
:100C900002E044689C43446010BD816841F0080153
:100CA00081607047014600208A6802F008020AB19C
:100CB000012000E000207047816841F0040181605C
:100CC0007047014600208A6802F004020AB1012040
:100CD00000E00020704721B1826842F4A0028260E7
:100CE00003E0826822F4A00282607047014600207F
:100CF0008A6802F480020AB1012000E000207047F7
:100D000010B50A4600210023416821F46041531EBA
:100D100041EA4331416010BD21B1426842F40062B2
:100D2000426003E0426822F4006242607047F0B51E
:100D300004460D4600200021092D11DDE068A5F1D3
:100D40000A0606EB4607072606FA07F18843A5F1CF
:100D50000A0606EB460603FA06F10843E0600CE0DB
:100D6000206905EB4507072606FA07F1884305EBDE
:100D7000450603FA06F108432061072A0FDA606B83
:100D8000561E06EB86071F2606FA07F18843561EF5
:100D900006EB860605FA06F10843606322E00D2A99
:100DA0000FDA206BD61F06EB86071F2606FA07F11F
:100DB0008843D61F06EB860605FA06F10843206332
:100DC00010E0E06AA2F10D0606EB86071F2606FA80
:100DD00007F18843A2F10D0606EB860605FA06F137
:100DE0000843E062F0BD21B1826842F48012826063
:100DF00003E0826822F48012826070470146C86C6A
:100E000080B2704766484C300068704721B1426834
:100E100042F48062426003E0426822F480624260F1
:100E2000704721B1426842F48052426003E0426858
:100E300022F48052426070470A460021816821F402
:100E4000E04111438160704721B1826842F4004261
:100E5000826003E0826822F400428260704721B120
:100E6000826842F40212826003E0826822F4021275
:100E700082607047014600208A6802F400120AB1BD
:100E8000012000E000207047F0B504461546002020
:100E900000220026092911DDE068A1F10A0707EB0D
:100EA000470C072707FA0CF29043A1F10A0707EB5A
:100EB000470703FA07F21043E0600CE0206901EBFA
:100EC000410C072707FA0CF2904301EB410703FAA4
:100ED00007F210432061A06BC0F30156EF1C06F12E
:100EE000010CA7EB0C0707EB870C1F2707FA0CF286
:100EF0009043EF1C06F1010CA7EB0C0707EB8707EB
:100F000001FA07F21043A063F0BD10B50A460021B4
:100F10000023816B21F44011531E41EA0351816388
:100F200010BD08B5002300930090009B0B44009374
:100F3000009B1A6008BD08B5024600200090009290
:100F400001F12800009B184400900098006880B2CE
:100F500008BD0A4600214168164B19401143416003
:100F600070474162826270470A460021416821F061
:100F70001F0111434160704740B1094908310968B8
:100F800041F40001064A0832116007E004490831C3
:100F9000096821F40001024A08321160704700001C
:100FA0000024014000280140003C0140FFFEF0FF0A
:100FB000FDF7F1FFFFFD3FFF0246002013680B40E5
:100FC0000BB1012000E000207047CA430260704767
:100FD00070B502460020002300240B125568CEB2E3
:100FE00005EA060415681D4015B10CB1012000E0AA
:100FF000002070BD00220A12D34303607047000036
:10100000A14A0A400243A14B1A60704701460723D8
:1010100023EA010212029D4B1B1D18684FF6FF03C5
:1010200018409B4B18431043984B1B1D186070478A
:101030002DE9F0410746884614461D462846FFF72D
:10104000E5FFC5F1040007FA00F60F20284100EA89
:101050000800064306F00F06202C09DA8D480068C8
:101060000121A14008434FF0E021C1F800010BE04D
:101070008848001D0068A4F1200101228A40104325
:101080004FF0E021C1F804018348005D40EA0610FA
:10109000C1B281480155BDE8F08170B504460B46E8
:1010A000CE1701EB9676C6F38700CE1701EB967646
:1010B000B610A1EB8606B606350E784B9B6943F059
:1010C0000103764EB3614FEAB63353F820300F2652
:1010D000AE40B343724E46F82030334653F82030CA
:1010E00004FA05F61E436E4B43F820606D4B1B68F7
:1010F00001268E4033436B4E336002F0010343B14F
:10110000684B0C331B6801268E403343654E0C360A
:10111000336002F0020343B1624B08331E680123BF
:101120008B401E435F4B08331E6070BD00B500202E
:101130005A490861C8601420486100208861C8616C
:101140000846006840F001000860084640685649BB
:1011500008405249486008460068544908404F49D1
:1011600008600846006820F480200860084640684F
:1011700020F4FE0048600020886000214FF00060ED
:10118000FFF73EFF00BD10B540480830006840F052
:1011900004003E49083108604048C06940F0805072
:1011A0003E49C8614248406840F480704049486008
:1011B0000846006840F0040008600846006840F0F7
:1011C00002000860FEF7BEFF10BD3148001D2F4928
:1011D000091D0860704701464906304A926942F08D
:1011E00001022E4B9A612E4A083A526822F0E062C0
:1011F0002B4B083B5A601A4652680A435A607047A4
:1012000030B504460025FFF791FF2448006840F4FC
:1012100080302249086000BF20480068400C002848
:10122000FAD04FF480601D494860A01EC4B2084641
:10123000406840EA844048600846406840F4803096
:1012400048601C48006840F032001A4908601348A2
:10125000006840F080701149086000BF0F480068C6
:10126000400E0028FAD00D48406840F002000B49BB
:10127000486005E009484068C0F3870505F00305AC
:10128000022DF7D130BD000080FFFF1F08ED00E008
:101290000000FA0500E100E000E400E00010024078
:1012A00008000140000401400000FFF8FFFFF6FEC7
:1012B000007000400020024010B501F0CAFE02F0AC
:1012C00028F801F0FCFE10BD10B54FF0E0221269C5
:1012D00022F004024FF0E0231A61C31700EB5373AE
:1012E000C3F3C703324C2370C31700EB5373D910F9
:1012F00041F28832514305222E4B1A804FF0E022F2
:10130000126942F002024FF0E0231A611A4651615D
:10131000126942F001021A6110BD2DE9F04707463B
:1013200000264FF0E020D0F814902148007807FB09
:1013300000F800BF01F0FBFE4FF0E020856911E0EE
:101340004FF0E0208469AC420CD0AC4202D2281BA2
:10135000064403E0A9EB040028440644254646451C
:1013600000D300E0ECE700BF01F026FFBDE8F08706
:1013700070B5044610480078012811D10D48008846
:10138000844206DB0B48008894FBF0F5284604F005
:1013900047FB0848008894FBF0F100FB114084B241
:1013A0004FF47A7104FB01F0FFF7B7FF70BD000046
:1013B00014000020160000205C00002023488069F3
:1013C00040F00800214988610846806940F08000AB
:1013D00088611F48006820F00F001D49086008461A
:1013E000006840F00300086019480C30006840F0C5
:1013F000010017490C3108601648006820F0704061
:10140000144908600846006840F0405008601148E0
:101410000C30006840F080000E490C3108600D4827
:10142000001D006820F00F000A49091D08600846E9
:10143000006840F00300086006480C30006840F483
:10144000807004490C3108607047000000100240B1
:10145000000C0140001C0140014600BF704700BF66
:101460003C4A128802F04002002AF9D0C2B2394B3D
:101470001B1D1A80704710B5044600BF3548008810
:1014800000F020000028F9D03249091D0988C8B2AF
:101490003149FFF7E4FF2F48001D0088C0F3080022
:1014A00010BD2DE9F04705460E46300104F079FDE8
:1014B00081462A4905FB01F004F073FD8246494646
:1014C00004F031FD0746384604F070FD84B2204632
:1014D00004F067FD8246394604F0F0FC814604F0D2
:1014E00065FD4FF6FF7101EA0018084600EA041492
:1014F00004EB080084B21A48806940F004001849DF
:1015000088610846806940F4804088611548006819
:1015100020F47F60134908600846006840F40B60BF
:1015200008600F48C06840F480400D49C860084614
:10153000C06820F48040C860064808300480001D60
:10154000008842F20C01084302490C310880BDE8D2
:10155000F0870000003801401800002040420F00D2
:1015600000100240040801406049098801F0200190
:1015700089B15E49091D0988C8B25D490988B1F57C
:10158000806F08DA5B495A4A12888854584909889A
:10159000491C574A118070472DE9F04705460E4611
:1015A000300104F0FEFC8146534905FB01F004F0D4
:1015B000F8FC8246494604F0B6FC0746384604F07B
:1015C000F5FC84B2204604F0ECFC8246394604F077
:1015D00075FC814604F0EAFC4FF6FF7101EA001841
:1015E000084600EA041404EB080084B2434880690A
:1015F00040F00400414988614148006820F47F4080
:101600003F4908600846006840F40B4008603B48CA
:10161000C06940F400303949C8610846006940F4A7
:10162000003008610846006920F4003008612F4846
:1016300008300480001D008842F20C0108432B4949
:101640000C3108800846008840F480700880084605
:10165000008840F02000088002232622032108464B
:10166000FFF7E6FC002027490860BDE8F08710B5C9
:1016700002460123234C236000200CE000BF1B4BDB
:101680001B8803F04003002BF9D0135C174C241D7A
:101690002380431C98B28842F0DB00BF134B1B88A9
:1016A00003F04003002BF9D00023114C2380154C8C
:1016B000236010BD30B503460D4C22880020002465
:1016C0000C800B4C2488A2420FD172B100BF04E001
:1016D000084C245C1C54441CA0B29042F8DB044C1F
:1016E00024880C800024024D2C8030BD0044004032
:1016F0001C0000208400002040420F000010024027
:1017000000080140A401244210B57E48008800F082
:101710002000A8B17B48001D0088C4B27A48008828
:10172000B0F5806F09DA79487749098844547648DA
:101730000088401C7449088002E075A004F0CEFFC8
:1017400010BD2DE9F04705460E46300104F029FC96
:101750008146754905FB01F004F023FC82464946A9
:1017600004F0E1FB0746384604F020FC84B2204632
:1017700004F017FC8246394604F0A0FB814604F0D1
:1017800015FC4FF6FF7101EA0018084600EA041440
:1017900004EB080084B26548806940F008006349A2
:1017A00088616348006820F47F406149086008460A
:1017B000006840F40B4008605C48C06940F4802039
:1017C0005A49C8610846006940F48020086108460B
:1017D000006920F4802008614A4808300480001D18
:1017E000008842F20C01084346490C310880084643
:1017F000008840F4807008800846008840F020008F
:1018000008800223272203210846FFF711FCBDE8C8
:10181000F08710B5024600200CE000BF394B1B8852
:1018200003F04003002BF9D0135C364C241D2380B9
:10183000431C98B28842F0DB00BF324B1B8803F098
:101840004003002BF9D010BD2DE9F04781468A46B0
:10185000144698462C48058800270020A8F8000068
:101860000A20FFF785FD2848008885422BD1002DEE
:1018700029D0B4F5806F23DAC4F58060A84201DB7B
:101880002E4605E0C4F5806086B22AA004F026FF4B
:1018900000270DE01D49C95D07EB0A00C21700EBE8
:1018A00092529212A0EB822209F80210781C87B2A1
:1018B000B742EFDBA8F8006000201349088002E07F
:1018C00028A004F00BFFBDE8F08730B503460E4CAE
:1018D0002288002000240C800B4C2488A2420FD1C7
:1018E00072B100BF04E0094C245C1C54441CA0B23B
:1018F0009042F8DB044C24880C800024024D2C809C
:1019000030BD0000004800401E000020840400207C
:101910000D0A5553415254335F52585F4255462089
:1019200046554C4C210D0A0040420F000010024069
:10193000040C01400D0A636F70795F6C656E203D89
:10194000204D41585F574946495F4255465F5349CC
:101950005A45202D20746F74616C5F6C656E0D0AA2
:10196000000000000D0A746F74616C5F6C656E207E
:101970003E3D204D41585F574946495F4255465FBD
:1019800053495A450D0A000008B501211020FEF701
:1019900081FF0120ADF8000010208DF8030069469A
:1019A0005748FEF7BBFC002201215548FEF767FDB2
:1019B00008BD08B5FFF7E8FFA1E052A004F08EFED5
:1019C0005648006802F09AFA6A46002153480068B7
:1019D00002F02DFB04469DF80000002877D1207806
:1019E000042808D1012211464548FEF748FDC820C9
:1019F000FFF7BEFC83E02078012810D101221146B8
:101A00003F48FEF73CFDC820FFF7B2FC0022012151
:101A10003B48FEF734FDC820FFF7AAFC6FE02078B2
:101A2000022820D1012211463548FEF728FD642006
:101A3000FFF79EFC002201213148FEF720FD6420C3
:101A4000FFF796FC012211462D48FEF718FD642091
:101A5000FFF78EFC002201212948FEF710FD6420CB
:101A6000FFF786FC4BE02078032831D10122114694
:101A70002348FEF704FD5020FFF77AFC00220121E5
:101A80001F48FEF7FCFC5020FFF772FC01221146B4
:101A90001B48FEF7F4FC5020FFF76AFC00220121EE
:101AA0001748FEF7ECFC5020FFF762FC01221146BC
:101AB0001348FEF7E4FC5020FFF75AFC00220121F6
:101AC0000F48FEF7DCFC5020FFF752FC17E00EE059
:101AD000207840B9002201210948FEF7D0FC64209B
:101AE000FFF746FC0BE00EA004F0F8FD07E09DF8C0
:101AF000001016A004F0F2FDC820FFF739FC5CE7E7
:101B0000001001400D0A202D2D496E206265657080
:101B10005F7461736B28290D0A00000030000020FB
:101B20000D0A20626565705F7461736B3A20756E93
:101B30006B6E6F7720626565705F73746174757327
:101B40005F616374696F6E0D0A0000000D0A206208
:101B50006565705F7461736B3A204F534D626F78A7
:101B600050656E64204552524F523A202564200D34
:101B70000A0000000A4660B1002108E0435C0D2B1A
:101B800002D0435C0A2B01D120234354491C9142CB
:101B9000F4D370472DE9F84306460D467F4A0021ED
:101BA0007F48006802F0D7FC7C48007820B17B4871
:101BB00001787CA004F092FD69462846FFF785FE77
:101BC0007748006802F0E8FD04461CB121468148D0
:101BD00004F084FD0F20FFF7CBFB704A0021704812
:101BE000006802F0B8FC6D48007820B16B480178BD
:101BF0006CA004F073FD304604F0DFF887B239467C
:101C00003046FFF706FE6648006802F0C5FD044650
:101C10001CB121466F4804F061FD4FF480612846F5
:101C200004F0A2F86CA1304604F0A9F820B141F20A
:101C30008830FFF79DFB03E04FF4FA60FFF798FB55
:101C4000564A00215648006802F085FC5348007847
:101C500020B15248017853A004F040FD694628465F
:101C6000FFF733FE4E48006802F096FD04461CB1B3
:101C70002146584804F032FD284604F09EF881467B
:101C800049462846FFF776FF0746304604F095F8A8
:101C9000814649463046FFF76DFF8046BDF800306B
:101CA0003A4641464FA004F019FDBDE8F88300B55F
:101CB000ADF2344D4FF480610DA804F055F859A0F1
:101CC00004F00CFD60A1684604F07EF80DA968469A
:101CD000FFF760FF6420FFF74BFB5CA1684604F050
:101CE00073F80DA96846FFF755FF5AA10DA804F037
:101CF00046F818B101200DF2344D00BD0020FAE77E
:101D000000B5ADF2344D03E04FF47A70FFF730FBCD
:101D1000FFF7CDFF0028F7D04FA004F0DFFC5AA159
:101D2000684604F051F80DA96846FFF733FF5BA140
:101D3000684604F049F80DA96846FFF72BFF5CA13F
:101D4000684604F041F80DA96846FFF723FF61A13A
:101D5000684604F039F80DA96846FFF71BFF60A13B
:101D6000684604F031F80DA96846FFF713FF67A134
:101D7000684604F029F80DA96846FFF70BFF67A134
:101D8000684604F021F80DA96846FFF703FF67A035
:101D900004F0A4FC0DF2344D00BD00002000002032
:101DA0002C0000200D0A31303A4F534D7574657880
:101DB00050656E64204552524F5221205553415276
:101DC00054335F4D757465783A206572723A2025F8
:101DD000640D0A009071000841542B43574A41504A
:101DE000000000000D0A20496E20574946495F5304
:101DF000656E645F5265637628293A20636F6D6D66
:101E0000616E643A2025732C20726563765F62757B
:101E1000663A2025732C206C656E3A2025640D0AE5
:101E2000000000000D0A20574946493A20446574D5
:101E3000656374696E672045535038323636202EFC
:101E40002E2E0D0A000000002B2B2B004154453094
:101E50000D0A00004F4B00000D0A20496E207769E3
:101E600066695F636F6E6E65637428293A20455317
:101E70005038323636206973204465746563746562
:101E8000642E0D0A0000000041542B43574D4F446F
:101E9000455F4445463D310D0A00000041542B4347
:101EA000574155544F434F4E4E3D300D0A000000F0
:101EB00041542B43574A41505F4355523D22637072
:101EC0006464222C223131313131313131220D0A19
:101ED0000000000041542B43494653520D0A0000B4
:101EE00041542B43495053544152543D2254435082
:101EF000222C223139322E3136382E34332E3130E5
:101F000037222C383038300D0A00000041542B4362
:101F100049504D4F44453D310D0A000041542B437B
:101F2000495053454E440D0A000000000D0A205749
:101F30004946493A20436F6E6E6563742068617349
:101F40002066696E69736865642E0D0A00000000E2
:101F500008B50024002000907E4A00217E480068D9
:101F600003F041F87B48007820B17A4801787BA0E3
:101F700004F0B4FB24E084A004F0B0FB884800889F
:101F800004F00FF80546874903F09BFF0090009886
:101F900004F020F805462A460B4683A004F09EFB79
:101FA0002046641C04236A4683A100F03AFE42F2F4
:101FB0001070844200D100244FF47A70FFF7D8F9F2
:101FC000D9E717E000F0DEFE00F0B8FE11E02021B6
:101FD0007B48FEF736FA30B100F0E9FE4FF461704D
:101FE000FFF7C6F905E000F0D3FE4FF46170FFF78C
:101FF000BFF9ECE7E6E70EE00020724908604FF415
:10200000FA70FFF7B5F901206F49C1F880014FF46C
:10201000FA70FFF7ADF9EFE770B50446002500BF91
:102020006AA004F05BFB03F0D5FD05460B236C4A68
:102030000021AFF23D0003F0A5F90C23694A00210D
:10204000AFF2810003F09EF90D23674A0021674833
:1020500003F098F90E23664A0021664803F092F9CE
:102060000F23654A0021AFF2171003F08BF9092006
:1020700003F00DFC284603F0B1FD70BD10B509203A
:10208000FFF7BEF84820FFF71FF9FFF797F94FF465
:10209000E1314820FFF705FA4FF4E1312420FFF742
:1020A0007BFA4FF4E1312420FFF74BFB00F053FAA9
:1020B00052A1544803F088FE53A004F00FFB00F037
:1020C000B2FF002002F009FF2349086008460068BB
:1020D00028B951A004F002FB4FF0FF3010BD1D499C
:1020E000022002F035F95C4908601A48007838B1DE
:1020F0001848017859A004F0F1FA4FF0FF30EDE7ED
:102100001449032002F024F960490860114800785E
:1021100038B1104801785EA004F0E0FA4FF0FF30CB
:10212000DCE7002001F0FDFE654908600846006814
:1021300028B964A004F0D2FA4FF0FF30CEE70923AB
:10214000704A0021AFF22F1003F01CF901F0AAF839
:102150000020C3E720000020240000200D0A496E63
:1021600020706F7765725F7461736B28293A204F16
:102170005353656D50656E6428293A206572723A32
:102180002025640D0A0000000D0A202D2D496E2027
:10219000706F7765725F7461736B28290D0A000098
:1021A000340000206740533A0D0A204144433A204E
:1021B00025660D0A00000000504F574552000000F0
:1021C0000008014080812142008021420D0A2053F5
:1021D00074617274205461736B73210D0A000000E6
:1021E00084120020841A0020841E0020B3190008E5
:1021F000842E002099250008843600205242303079
:10220000310000008C3600200D0A20537461727476
:10221000204F53210D0A00000D0A204F5353656DC6
:10222000437265617465204552524F5221204E4FD2
:10223000206576656E7420636F6E74726F6C2062B9
:102240006C6F636B73207765726520617661696C72
:1022500061626C652E0D0A00280000200D0A204FD7
:10226000534D7574657843726561746520455252AB
:102270004F5221205553415254325F4D7574657849
:102280003A206572723A2025640D0A002C00002065
:102290000D0A204F534D75746578437265617465FE
:1022A000204552524F5221205553415254335F4DD5
:1022B000757465783A206572723A2025640D0A00BB
:1022C000300000200D0A4F534D626F7843726561F4
:1022D0007465204552524F5221204E6F206576651D
:1022E0006E7420636F6E74726F6C20626C6F636BC0
:1022F00073207765726520617661696C61626C65D7
:10230000210D0A0084100020704700BFFEE700BFC7
:10231000FEE700BFFEE700BFFEE77047704710B55D
:102320000248FEF76BFD0249088010BD00280140FD
:102330003800002008B512208DF8000000208DF82C
:1023400001008DF8020001208DF803006846FDF7BA
:102350001CFF08BD10B500208549086008710120E8
:1023600048714FF4602088600020C8600120087424
:102370008048FEF744FC032301220E217D48FEF72E
:10238000D6FC01217B48FEF771FC002078490860EB
:102390000871012048714FF4602088600020C860F7
:1023A000012008747448FEF72AFC032301220D2142
:1023B0007148FEF7BCFC01224FF408716E48FEF72D
:1023C00060FC00206A4908600871012048714FF4E0
:1023D000602088600020C860012008746748FEF70C
:1023E0000EFC032301220C216448FEF7A0FC01210E
:1023F0006248FEF73BFC01215E48FEF72CFC5D487D
:10240000FEF74BFC00BF5B48FEF74CFC0028FAD1FE
:102410005848FEF751FC00BF5648FEF752FC002812
:10242000FAD101215448FEF716FC5348FEF735FC5B
:1024300000BF5148FEF736FC0028FAD14E48FEF79F
:102440003BFC00BF4C48FEF73CFC0028FAD10121C0
:102450004A48FEF700FC4948FEF71FFC00BF47480A
:10246000FEF720FC0028FAD14448FEF725FC00BF07
:102470004248FEF726FC0028FAD101213D48FEF72C
:102480002AFC01213C48FEF726FC01213B48FEF7CF
:1024900022FC10BD10B53A48FEF760FA35484C30C2
:1024A0003849086038484860002088600120C860CA
:1024B0000020086148614FF4807088618000C86125
:1024C0002020086200024862002088622C48FEF743
:1024D000E7FA01212A48FEF70EFB2C48FEF73EFAE8
:1024E00026484C3027490860294848600020886009
:1024F0000120C8600020086148614FF48070886145
:102500008000C861202008620002486200208862C2
:102510001E48FEF7C5FA01211C48FEF7ECFA10BD73
:1025200008B51C20ADF8000000208DF803006946B6
:102530001848FDF7F3FE08BD10B54FF48040FEF7D4
:102540000DF901210320FEF798F9012148F21060EE
:10255000FEF7A0F910BD10B5FFF7EEFFFFF7E0FFA3
:10256000FFF798FFFFF7F6FEFFF7E4FE10BD00004F
:10257000F03600200024014000280140003C0140CA
:1025800008000240043700203400002058040240B4
:102590003600002000100140ADF5A26DFFF7B0FB42
:1025A000F448006802F0CEFD8146B9F1000F03D077
:1025B0004946F1A004F092F800250020059000267D
:1025C0004FF480612EA803F0CFFBBFE100200690FE
:1025D000834604900390029058210DF5976003F014
:1025E000C3FB00200190142113A803F0BDFB1821A8
:1025F0000DA803F0B9FB182107A803F0B5FBEB4ABF
:102600000021EB48006801F0A6FFE848007820B1FF
:10261000E6480178E7A004F061F806AB2A462EA848
:102620000599FFF711F9E248006802F0B5F8814614
:10263000B9F1000F03D04946EB4804F04FF8BDF85C
:10264000182005998818C11700EB91518912A0EB49
:10265000812189B20591BDF81800284485B21A2D50
:1026600073D32946E1A004F039F80624B6E0311905
:10267000CA1701EB92529212A1EB82222EAB9A5C06
:10268000522A7AD13219501DC21700EB925292127F
:10269000A0EB82229A5C522AF3D1DBA004F01EF850
:1026A0003119881EC11700EB91518912A0EB8121CD
:1026B0002EAA515C8DF804103119481EC11700EB89
:1026C00091518912A0EB8121515C8DF8051001A870
:1026D00003F092FB8346BBF1000F02DBBBF13B0F23
:1026E00003D9CAA003F0FAFF77E00BF11A0087B212
:1026F000E019801FA84268DCB84612E03119891F32
:102700004144481EC11700EB91518912A0EB812171
:102710002EAA515C0A2902D10120039004E0A8F1FD
:102720000108B8F1180FE9D800BF039870B9BFA02D
:1027300003F0D4FF04F11200281A85B230191230C8
:10274000C0F30906012002904DE05FE0B84515DABC
:10275000BBA003F0C3FF04EB0800801F281A85B25A
:1027600031194144881FC11700EB91518912A0EB28
:1027700081218EB20120029035E02AE04FF0000A5C
:1027800010E03119891F01EB0A00C11700EB9151CC
:102790008912A0EB81212EAA515C18AA02F80A1016
:1027A0000AF1010ABA45ECDBE019801F281A85B24C
:1027B00031193944881FC11700EB91518912A0EBE0
:1027C00081218EB2012004900DE0A4A003F086FFC9
:1027D00002E0A9A003F082FF00BF641CA5F1140071
:1027E000A042BFF444AF00BF049858B9029848B95A
:1027F0003019C11700EB91518912A0EB81218EB2E3
:10280000281B85B22946A5A003F068FF049800287C
:1028100072D0042218A90DA803F0C3FA022219A944
:102820000EA803F0BEFA05220DF166010DF13A0083
:1028300003F0B7FA05220DF16B010DF13F0003F033
:10284000B0FA08221CA911A803F0ABFA05229A4994
:102850000DF13F0003F0C1FA38B1052297A10DF147
:102860003F0003F0BAFA002866D196A003F036FFC5
:102870000DA998A003F032FF0EA99EA003F02EFF31
:102880000DF13A01A3A003F029FF0DF13F01A9A02A
:1028900003F024FF11A9B0A003F020FF0DA907A8A1
:1028A00003F092FA0DF13A010DF1270003F08CFAD2
:1028B0000DF13F010DF1220003F086FA11A90BA8DA
:1028C00003F082FA0822ABA111A803F086FAA0B99E
:1028D00011A9ABA003F002FF01200090012269467C
:1028E000AF48006801F086FC8146B9F1000F2DD099
:1028F000AC4803F0F3FE29E025E00822AAA111A8C4
:1029000003F06BFA98B911A99DA003F0E7FE02202D
:10291000009001226946A248006801F06BFC8146E4
:10292000B9F1000F12D09F4803F0D8FE0EE011A9B4
:10293000A0A003F0D3FE09E05F4A0DF13F01A648D5
:1029400003F0CCFE02E06420FEF712FD3EE670B517
:1029500005460E46A1A003F0C1FE144A002114480A
:10296000006801F0F8FD1148007810B10F480178B7
:1029700042E144E1240000200D0A20496E20636FEB
:102980006D6D756E69636174696F6E5F7461736B91
:1029900028293A204F5353656D506F73743A207253
:1029A00065743A202564200D0A00000020000020F4
:1029B0002C0000200D0A2031303A4F534D757465BC
:1029C0007850656E64204552524F52212055534134
:1029D0005254335F4D757465783A206572723A20AF
:1029E00025640D0A00000000D47100080D0A204281
:1029F00065666F726520746F74616C5F6C656E3AAA
:102A00002025640D0A0000000D0A00000D0A434F46
:102A10004D4D414E4420506172616D5F6C656E207A
:102A20004552524F52210D0A000000000D0A204E5F
:102A30006F20270A27204552524F52210D0A0000CD
:102A40000D0A20270A27207368696674203E203209
:102A5000204552524F52210D0A0000000D0A204518
:102A600052524F523A206D6573736167655F6C65B2
:102A70006E210D0A000000000D0A204552524F52EF
:102A80003A205769666920636F6D6D616E64206ED0
:102A90006F74206D61746368210D0A000D0A204176
:102AA0006674657220746F74616C5F6C656E3A2039
:102AB00025640D0A000000008C360020524239398E
:102AC000390000000D0A20776966695F6D73673A07
:102AD0000D0A0000776966695F6D73675F726563F1
:102AE000762E73657269616C3A20252E34730D0A57
:102AF00000000000776966695F6D73675F726563E8
:102B0000762E706172616D5F6C656E3A20252E3293
:102B1000730D0A00776966695F6D73675F7265633D
:102B2000762E736F757263653A20252E35730D0A04
:102B300000000000776966695F6D73675F726563A7
:102B4000762E64657374696E6174696F6E3A2025C0
:102B50002E35730D0A000000776966695F6D736733
:102B60005F726563762E636D643A20252E38730D8F
:102B70000A0000004F4E45534F554E4400000000E0
:102B80000D0A20776966695F6D73675F72656376AA
:102B90002E636D643A20252E38730D0A0000000064
:102BA000300000201C72000854574F534F554E44BC
:102BB000000000000D0A204552524F5220776966EE
:102BC000695F6D73675F726563762E636D643A202B
:102BD000252E38730D0A0000687200080D0A205374
:102BE000656E642064617461207573652077696621
:102BF000692E0D0A0000000032A003F06FFD0F20C7
:102C0000FEF7B6FB31462846FEF703FE394800685A
:102C100001F0C2FD04461CB12146374803F05EFDB9
:102C200070BD2DE9F0419CB005460F4690461E460A
:102C3000182116A803F098F85821684603F094F874
:102C4000002D02DBB5F57A7F00DB0025681C054608
:102C500002462AA116A803F051FDF21C27A117A8CD
:102C600003F04CFD26490DF15E0003F0ADF825A1FF
:102C70000DF1630003F0A8F827B139461AA803F054
:102C8000A3F803E021A11AA803F09EF81824224615
:102C900016A9684603F04FF80DEB04003246414692
:102CA00003F049F834440D200DF80400641C0A2098
:102CB0000DF80400641CA1B26846FFF748FE1CB082
:102CC000BDE8F0810D0A31303A4F534D7574657887
:102CD00050656E64204552524F5221205553415247
:102CE00054335F4D757465783A206572723A2025C9
:102CF000640D0A002C000020D47100082564000037
:102D00008C36002052423030300000004461746143
:102D100053696E6B0000000008B548208DF8030071
:102D20000120ADF8000069460A48FDF7F7FA08BD32
:102D300010B501210520FDF7ADFD10BD10B5FFF761
:102D4000F7FFFFF7E9FF10BD10B501210148FDF7BE
:102D500078FB10BD0008014008B510208DF8030075
:102D60004FF4A270ADF8000003208DF80200694610
:102D70001648FDF7D3FA08BD10B501210420FDF770
:102D800089FD10BD10B5FFF7F7FFFFF7E5FF10BD98
:102D900010B504210D48FDF76EFB4FF480710B4810
:102DA000FDF76BFB40210948FDF767FB10BD10B52F
:102DB0004FF480710548FDF75EFB04210348FDF7E1
:102DC0005CFB40210148FDF756FB10BD00080140A7
:102DD0007CB5002514E06946284602F016FD06463B
:102DE00066B9FE4850F8254044B1012C06D0D4E91C
:102DF000020100EB8100A0640198E064681CC5B288
:102E00007F2DE8D97CBD002400BF02E0282002F01D
:102E100007FEF34800780028F8D0F24800686421E3
:102E2000B0FBF1F0EF4908600846006828B90020BF
:102E3000ED490870FF2002F02AFD00BF02F0CAFE33
:102E40000446EA480068EA4908600020E74908604B
:102E5000204602F0C3FEE6480068E2490968B0FB7C
:102E6000F1F0C0F16400E049087002F012FFFFF7D2
:102E7000AFFF142002F0D4FDE0E700B587B00320D7
:102E800000218022DB4BCDE90132CDE903104FF662
:102E9000FE707E23D84A0090AFF2950002F0C9FA86
:102EA00006AAD6A17E2002F02FFC07B000BD0024A8
:102EB00000BF00BF02F08EFE0446CC480068401CF4
:102EC000CA490860204602F089FE02F0E1FEF1E7FF
:102ED00000B587B0032000218022CC4BCDE9013220
:102EE000CDE903104FF6FF707F23C94A0090AFF27F
:102EF000410002F09EFA06AAC6A17F2002F004FC5F
:102F000007B000BD04E0002200F8012B4A1E91B278
:102F10000029F8D1704770B54FF40C71C148FFF724
:102F2000F1FF00230FE0581C85B2C3EBC300BD497D
:102F300001EB8004C5EBC50001EB8006002020708A
:102F40006660581C83B2132BEDD3C3EBC300B549A5
:102F500001EB80040020207060600846B2490860E0
:102F600070BD70B54FF43B61B048FFF7CBFF4FF435
:102F700000719A48FFF7C6FF002413E0601CC5B239
:102F800004EB440000EBC400A84901EBC00305EBCF
:102F9000450000EBC50001EBC0065E61A4A018650A
:102FA000601CC4B2212CE9D304EB440000EBC40044
:102FB0009E4901EBC003002058619DA018650020C8
:102FC0009C49086099489C49086070BD00219B4A53
:102FD0001180002005E00021994A22F81010411CC0
:102FE000C8B20828F7D30021964A1170964A11708A
:102FF000964A1160964A1160704700209549086012
:103000009549087095490870954908709549087068
:1030100095490860754908607549086071490860FC
:103020006F490870704710B502F02EFEFFF7E5FFFC
:10303000FFF7CCFFFFF795FFFFF76DFF00F030FFC4
:1030400001F00DFFFFF744FFFFF717FF02F01DFE31
:1030500010BD84480078012808D17F480078FF28F7
:1030600004D27D480078401C7B4908707047734A41
:10307000127822B1714A12787C4B985C07E07B4A47
:103080006E4B1B8802EB132212780832D0B26C4AC6
:1030900002EB40010A783AB10A78744B9A5C02EB71
:1030A0000012694B1A7009E00A88704B03EB122278
:1030B000127802EB00120832634B1A70704710B599
:1030C000002468480078012830D102F083FD0446CE
:1030D0006148007820B160480078401E5E49087061
:1030E0005D480078F8B95D480078E0B9FFF7BFFFA8
:1030F0003A485549097850F8210054490860524827
:1031000000785049097888420DD050480068C06B5B
:10311000401C4E490968C86353480068401C524926
:10312000086002F076FD204602F058FD10BD10B593
:1031300000244C480078012811D102F04BFD0446D0
:103140004548007840B945480078FF2804D24348F4
:103150000078401C41490870204602F03FFD10BD38
:1031600010B5002402F036FD04463B480078F8B95B
:103170003A480078E0B9FFF77AFF184832490978F1
:1031800050F82100314908602F4800782D4909780E
:1031900088420DD02D480068C06B401C2B4909683F
:1031A000C86331480068401C2F49086002F02AFDBE
:1031B000204602F013FD10BD10B500242948007808
:1031C00001286ED102F006FD04462448007818B1AB
:1031D00022480078401E4BE060E00000C03D002027
:1031E000540000204C000020480000206000002017
:1031F00050000020B0390020AC3B002075432F4F19
:10320000532D49492053746174000000C03B0020D5
:10321000BC3D002075432F4F532D49492049646C14
:10322000650000003037002040000020C03F002033
:103230003F00000070000020680000205A000020BD
:10324000B03B002057000020580000206C000020F8
:10325000640000207C000020550000205600002063
:103260005D0000205C0000203C0000200870000889
:10327000FE4908700846007860B9FD48007828B912
:10328000204602F0ABFCFFF76BFF0AE0204602F09D
:10329000A5FC06E0204602F0A1FC02E0204602F078
:1032A0009DFC10BD10B5F348007890B9FFF7DFFE24
:1032B000F1480078F1490870F148EF49097850F871
:1032C0002100F049086008460068EF49086002F0F4
:1032D00088FC10BD10B50024022002F0A1FB02F012
:1032E00079FC04460020E9490860204602F076FC9B
:1032F000142002F095FB02F06DFC0446E3480068E0
:10330000E34908600120E3490870204602F066FCAA
:1033100010BD70B5002602F00CFD02F05BFC064605
:10332000DD480068401CDC490860304602F056FC6D
:10333000D0480078012855D1D848007820B101281C
:1033400004D0022809D103E001250BE0002509E0A3
:1033500001250120D149087004E001250020CF4952
:10336000087000BF00BF05B970BDCD48046835E0E6
:1033700002F030FC0646E06A60B3E06A401EE0629C
:10338000E06A38BB94F8300000F0370040B114F820
:10339000300F00F0C800207001206070303C02E067
:1033A000002084F8310094F8300000F0080088B95B
:1033B000208FBC4909880843BA49088094F8340032
:1033C000B94931F81000E18E084394F83410B64A38
:1033D00022F811006469304602F000FC94F83200D3
:1033E0007F28C5D100BFBFE740F223107047704768
:1033F00010B590F8342001F10C0333F81230C48E6C
:10340000A34301F10C0424F81230234633F81230A0
:103410001BB94B89048FA3434B8110BD2DE9FF4F8E
:1034200005468A469346A87A18B1A87A9F490E5C49
:1034300006E068899D4901EB102000780830C6B28B
:1034400005F10C0000EB4607387820B13878974931
:1034500011F8008007E03888944901EB10200078CB
:10346000083000F0FF0808EB061000F0FF09844860
:1034700050F82940002044F82C0F44F80CAC207977
:1034800020EA0B0020710398607120792C3C00F039
:10349000080068B9208F834909880843814908805A
:1034A000814830F81600E18E08437F4921F8160064
:1034B00029462046FFF79CFF484604B0BDE8F08F40
:1034C00010B5714A1268D0616F4A126892F83430B0
:1034D00000F10C0232F813206B4B1B68DB8E1A4391
:1034E000694B1B6893F8344000F10C0323F8142057
:1034F0004289654B1B681B8F1A434281624A1268DE
:1035000092F83410684A32F811205F4B1B68DB8E4A
:103510009A43654B23F811201A4632F811203AB924
:10352000594A1268138F5F4A12889A435D4B1A807A
:1035300010BD014600224A81002006E0002301F16F
:103540000C0222F81030421CD0B20828F6D3704783
:1035500005E011F8013B00F8013B531E9AB2002A26
:10356000F7D170470146002002E0491C421CD0B24E
:103570000A78002AF9D170472DE9F84F05460F4621
:1035800090469946DDE90AAB0020009002F022FB4C
:10359000009047480468002C66D01C3454F8080C8E
:1035A00043490860009802F019FB44F81C7CA5759B
:1035B000002020756075206144F818BC44F810ACF8
:1035C00044F8148C0C9824F80C0C24F80A9C002065
:1035D000A0772809207605F00F00E075217E0120F4
:1035E0008840A083E17D0120884060830020206026
:1035F000A06060602062A0626062E0622063AFF25F
:10360000D03060631C3C002606E0002104F1540029
:1036100040F82610701CC6B2002EF6D0204602F0EC
:1036200087FB204602F032FB02F0D4FA00901448E7
:1036300040F825401A48006860610020A0611848E1
:10364000006810B116480068846115480460208F36
:103650001449098808431349088094F83400124932
:1036600031F81000E18E25E035E000005600002022
:10367000550000205C00002058000020570000206A
:10368000C03D00206C00002064000020600000208D
:103690004C000020540000207C000020740000201A
:1036A000700000205A000020B03B00200870000885
:1036B00068000020084394F83410094A22F81100E9
:1036C00008480078401C07490870009802F086FA04
:1036D0000020BDE8F88F009802F080FA4220F8E759
:1036E000B03B00205D0000202DE9F05F04460F464E
:1036F00091461E464FF0000B2078052804D001208B
:1037000030700020BDE8F09F09F0800ABAF1000F88
:1037100004D029F080094FF0010801E04FF00008C3
:103720000020307002F056FA8346B9F1000F2CD019
:10373000B9F1010F3BD0B9F1020F03D0B9F1030F7A
:1037400046D111E0208900EA0705BD4206D1B8F153
:10375000010F05D12089A843208101E0702030703D
:10376000584602F03BFA3AE0208900EA070535B1F5
:10377000B8F1010F05D12089A843208101E0702014
:103780003070584602F02AFA29E0208927EA00051D
:10379000BD4206D1B8F1010F05D12089284320810F
:1037A00001E070203070584602F018FA17E02089C6
:1037B00027EA000535B1B8F1010F05D1208928436A
:1037C000208101E070203070584602F007FA06E0D0
:1037D000584602F003FA00256F20307000BF00BF8A
:1037E00028468FE72DE9F04106460D460027FC48A4
:1037F000007820B1102028700020BDE8F08102F090
:10380000E9F90746F748046884B100684068F5495B
:10381000086005202070268100206060F2A0E06032
:10382000384602F0DBF90020287004E0384602F048
:10383000D5F9722028702046DFE730B501464A6886
:1038400008682AB9CC68606028B10025456002E0AC
:10385000106000B142608B6800255D6230BDF0B53C
:1038600006460F46B4680020283460602780207A1E
:1038700000F0DF00207200206072207A283C98B9A6
:10388000208FDA4909880843D849088094F8340021
:10389000D74931F81000E18E084394F83410D44A27
:1038A00022F81100012500E000253046FFF7C5FF92
:1038B0002846F0BD2DE9F0470446894615464FF0ED
:1038C000000AC748007820B10F2028702046BDE8C4
:1038D000F0872078052803D0012028702046F6E7DD
:1038E00002F078F98246606808B1012700E00027FD
:1038F000B9F1000F03D0B9F1010F3CD119E08FB934
:10390000B9A0E06000202070B64800686060002028
:103910002081B4480460504602F060F9002028700D
:10392000002605E0504602F059F949202870264645
:1039300028E0D4F8048005E000214046FFF78FFF1F
:10394000D8F80080B8F1000FF6D1A7A0E060002001
:103950002070A4480068606000202081A1480460B5
:10396000504602F03BF9012F01D1FFF7F9FB00208F
:103970002870002606E0504602F030F90720287033
:10398000264600BF00BF3046A1E72DE9F0410546BD
:103990000E46144600279248007820B1112020706E
:1039A0000020BDE8F08102F015F9074628780528C7
:1039B00006D0384602F012F9012020700020F0E70E
:1039C000E86830603068FFF7CDFD8046384602F089
:1039D00005F9002020704046E3E72DE9F041054657
:1039E0000E46144600277E48007818B11220207039
:1039F000BDE8F08102F0EEF807462878052805D0EA
:103A0000384602F0EBF801202070F1E7EE6038460E
:103A100002F0E4F80020207000BFE9E7F0B514469A
:103A2000059E744F3F6897F8307047F02007DFF825
:103A3000C4C1DCF800C08CF830700027DFF8B4C1D6
:103A4000DCF800C08CF831706A4F3F68FE62694F45
:103A50003F6879620C828B74664F3F688F6047685D
:103A60000F6000274F60C860456805B1696041601C
:103A7000604F3F6897F834205D4F37F81270DFF8D9
:103A800074C1DCF800C0BCF836C027EA0C07DFF8C8
:103A900060C12CF81270674637F812705FB9554F45
:103AA0003F68B7F838C0514F3F8827EA0C07DFF866
:103AB0003CC1ACF80070F0BD2DE9F04F89B005466F
:103AC0000F4691469A46129E002002904448007884
:103AD00028B102203070002009B0BDE8F08F4648C0
:103AE000007818B10D2030700020F5E728780528FF
:103AF00003D0012030700020EEE709F0800BBBF10D
:103B0000000F04D009F07F094FF0010801E04FF0E9
:103B1000000802F05FF80290B9F1000F4AD0B9F145
:103B2000010F78D0B9F1020F03D0B9F1030F71D1B1
:103B300020E0288900EA0704BC420FD1B8F1010F48
:103B400002D12889A04328812A4800680485029868
:103B500002F044F8002030702046BDE74B463A465C
:103B600004A92846CDF800A0FFF758FF029802F0FC
:103B700035F878E0288900EA07047CB1B8F1010F34
:103B800002D12889A04328811A4800680485029838
:103B900002F024F80020307020469DE74B463A465C
:103BA00004A92846CDF800A0FFF738FF029802F0DC
:103BB00015F858E0288927EA0004BC421ED1B8F164
:103BC000010F02D12889204328810A480068048512
:103BD000029802F003F80020307020467CE71AE0DB
:103BE00055000020440000203F0000005A00002043
:103BF000B03B002064000020560000204B463A46AF
:103C000004A92846CDF800A0FFF708FF029801F0AC
:103C1000E5FF28E01FE0288927EA00047CB1B8F11D
:103C2000010F02D1288920432881B148006804850A
:103C3000029801F0D3FF0020307020464CE74B463D
:103C40003A4604A92846CDF800A0FFF7E7FE0298FF
:103C500001F0C4FF07E0029801F0C0FF00246F20CC
:103C60003070204638E700BFFFF77AFA01F0B2FF64
:103C700002909F48006890F8310020B39C4800688B
:103C800090F83100039000209949096881F83100CB
:103C900004A8FFF7D2FD00209549096881F830009B
:103CA000029801F09BFF00240398012805D0022808
:103CB00002D10E20307003E000BF0A20307000BF38
:103CC00000BF204608E78A480068048DB8F1010F5C
:103CD0001ED1B9F1000F0ED0B9F1010F0CD0B9F11E
:103CE000020F03D0B9F1030F0AD100E000BF288909
:103CF000A04328810BE000BF28892043288106E0EB
:103D0000029801F06BFF6F2030700020E4E600BFE6
:103D1000029801F063FF002030702046DCE670B5A9
:103D2000002501F057FF054671480068048D2846BC
:103D300001F054FF204670BD2DE9FC5F0446894622
:103D400092461E46002000902078052804D00120CD
:103D500030700020BDE8FC9F01F03CFF0090BAF1FC
:103D6000000F03D0BAF1010F0AD104E0208920EA44
:103D7000090020810BE0208940EA0900208106E04B
:103D8000009801F02BFF712030700020E2E700BFA7
:103D90004FF0000B656855E0A87C40B3012838D08F
:103DA000022802D0032844D111E02089298A00EAA0
:103DB0000107288AB84209D139462846FFF74FFD46
:103DC0008046B8F1010F01D14FF0010B38E0208996
:103DD000298A00EA01074FB139462846FFF73FFD1F
:103DE0008046B8F1010F01D14FF0010B28E0288A7D
:103DF000218920EA0107288AB84209D13946284694
:103E0000FFF72DFD8046B8F1010F01D14FF0010BF6
:103E100016E0288A218920EA01074FB13946284651
:103E2000FFF71DFD8046B8F1010F01D14FF0010BE6
:103E300006E0009801F0D2FE6F203070002089E784
:103E400000BF2D68002DA7D1009801F0C7FEBBF17F
:103E5000010F01D1FFF784F901F0BCFE0090208929
:103E60000190009801F0BAFE00203070019871E7CF
:103E70002DE9F04104460D4600272078052804D09E
:103E8000012028700020BDE8F08101F0A3FE074664
:103E90002689384601F0A2FE002028703046F2E75D
:103EA0002DE9F04150211348FFF72CF800250EE0D2
:103EB000681C86B20F4800EB051400EB06170020C3
:103EC00020706760AFF2E020E060681C85B2042DCE
:103ED000EED3084800EB0514002020706060AFF2BC
:103EE000F820E060034804490860BDE8F081000064
:103EF00064000020603900204400002070B50446B2
:103F000000262078012801D0002070BD01F062FE5B
:103F10000646656800206060304601F05FFE284676
:103F2000F3E770B505460026E348007808B10020A5
:103F300070BD01F04FFE0646E0480468006820B1FD
:103F4000DE4800684068DD490860304601F046FE02
:103F50003CB1012020700020208165602046FFF7E1
:103F6000E8FA2046E4E72DE9F0470446884615467E
:103F70004FF000092078012804D001202870204645
:103F8000BDE8F087CC48007818B10F202870204693
:103F9000F6E701F01FFE8146608908B1012700E0C5
:103FA0000027B8F1000F03D0B8F1010F35D117E0A9
:103FB0007FB900202070C148006860600020208127
:103FC000BE480460484601F009FE00202870002623
:103FD00005E0484601F002FE49202870264623E00D
:103FE00005E00023022219462046FFF717FA6089F0
:103FF0000028F6D12070B148006860600020208160
:10400000AE480460484601F0E9FD012F01D1FFF7F9
:10401000A7F800202870002606E0484601F0DEFDE3
:1040200007202870264600BF00BF3046A8E72DE9CC
:10403000F04105460F4614464FF000082878012845
:1040400004D0012020700020BDE8F0819A4800785B
:1040500018B1022020700020F6E79948007818B1C6
:104060000D2020700020EFE701F0B4FD80466E685F
:1040700046B100206860404601F0B0FD002020708D
:104080003046E1E78F48006890F8300040F00200C9
:104090008C49096881F8300000208A49096881F854
:1040A000310088480068C7622846FFF709FA404691
:1040B00001F094FDFFF754F801F08CFD8046814833
:1040C000006890F8310020B101280DD002280AD1F3
:1040D00005E07C480068066A002020700DE000269C
:1040E0000E20207009E000BF294676480068FFF7DF
:1040F0007FF900260A20207000BF00BF0020714910
:10410000096881F830006F49096881F831006D490C
:104110000968C8616B4909680862404601F05EFDA4
:10412000304691E72DE9F04104460F4615464FF021
:1041300000082078012804D0012028700020BDE864
:10414000F08101F047FD8046608920B300267FB1F1
:10415000012F0CD107E002231A4600212046FFF769
:104160005DF9701CC6B260890028F4D109E000BF77
:1041700002231A4600212046FFF750F9701CC6B2F0
:1041800000BF00BF404601F029FDFEF7E9FF0E2009
:1041900028703046D3E7404601F020FD002028700B
:1041A00000BFCCE770B504460D46002620780128F4
:1041B00001D0012070BD01F00DFD0646608960B19F
:1041C0000023022229462046FFF728F9304601F055
:1041D00005FDFEF7C5FF0020ECE7606820B1304622
:1041E00001F0FCFC1420E5E76560304601F0F6FCC8
:1041F0000020DFE72DE9F04104460E461546002772
:104200002078012802D00120BDE8F08101F0E2FC15
:1042100007466089E8B105F0010050B105E00023D0
:10422000022231462046FFF7F9F860890028F6D1CE
:1042300005E00023022231462046FFF7EFF838461A
:1042400001F0CCFC05F0040008B9FEF789FF00205E
:10425000DAE7606820B1384601F0C0FC1420D3E7EB
:104260006660384601F0BAFC0020CDE72DE9F04742
:1042700004460D464FF000092078012802D00120A5
:10428000BDE8F08701F0A6FC81466089A88204F1B0
:104290000C0705F10408002605E037F8020B28F8A2
:1042A000020B701CC6B2082EF7D36068286048461F
:1042B00001F094FC0020E3E75500002040000020BE
:1042C00056000020640000202DE9F04104460D4610
:1042D00000272078042804D0012028700020BDE8A1
:1042E000F081FE48007818B1022028700020F6E71F
:1042F00001F070FC074620890612207AFF2820D1A1
:10430000208900F47F4020812089F549096891F8CF
:10431000321008432081F24800686060F04800686D
:1043200090F83200B04205DC384601F057FC7820A6
:10433000287004E0384601F051FC0020287001206C
:10434000CDE7384601F04AFC0020287000BFC6E7E0
:104350002DE9F04105460E460027E048007820B1DF
:10436000102030700020BDE8F08101F033FC0746DA
:10437000DC4850F8250030B1384601F02FFC2820E9
:1043800030700020EFE70120D64941F82500D648DB
:1043900004684CB9002041F82500384601F01EFCA5
:1043A000042030702046DEE7CF4800684068CE49E0
:1043B0000860384601F012FC04202070FF2040EA1B
:1043C00005202081002060602046FFF7B2F8002021
:1043D00030702046C7E730B590F83420C34B33F82F
:1043E0001230C48EA343C14C24F81230234633F854
:1043F00012302BB9048FBE4B1B88A343BC4C2380C7
:1044000000F8321FBB4B19700B09837001F00F03CA
:10441000437084780123A340C38044780123A340E0
:104420008380C388B24C24882343B14C2380837893
:10443000AE4C34F813308488234384783238AB4D43
:1044400025F81430A74B43F8210030BD2DE9F84F73
:1044500004468A461546002000902078042804D09F
:10446000012028702046BDE8F88F9C48007818B1DC
:104470000F2028702046F6E701F0ACFB0090608921
:1044800010B14FF0010801E04FF00008BAF1000F41
:1044900003D0BAF1010F54D11EE0B8F1000F14D1CE
:1044A0002089071200208F4941F8270020708E488C
:1044B00000686060002020818B480460009801F053
:1044C0008DFB00202870002605E0009801F086FB97
:1044D0004920287026463BE02089071294F808B04E
:1044E000D4F80490B9F1000F07D099F83200B8421F
:1044F00003D159464846FFF76EFF05E0002310221E
:1045000019462046FEF78AFF60890028F6D12089E7
:1045100007120020734941F8270020707248006894
:1045200060600020208170480460009801F056FB14
:10453000B8F1010F01D1FEF713FE0020287000260C
:1045400006E0009801F04AFB07202870264600BFCD
:1045500000BF304687E72DE9F74F82B00546174682
:10456000002001902878042804D00120387005B07C
:10457000BDE8F08F5948007810B102203870F6E796
:104580005D48007810B10D203870F0E701F022FB93
:10459000019028894FEA2029287AFF281FD12889ED
:1045A00000F47F40288128894D49096891F832102C
:1045B000084328814A48006868604948006890F8C4
:1045C0003200484505DC019801F008FB782038707E
:1045D00004E0019801F002FB00203870C7E795F86D
:1045E00008B06C6894F83200484575DD3C480068B6
:1045F00090F8320058456FDA94F834803B4830F830
:104600001800E18E0840A0B1384830F81800E18E5B
:104610008843364921F81800084630F8180028B9B0
:10462000218F334800888843314908804FF0010AC0
:1046300017E0E6699EB194F8348006F10C0030F87A
:104640001800E18E884306F10C0121F81800084695
:1046500030F8180018B97089218F884370814FF0A5
:10466000000A04F8329F20780009A070207800F03A
:104670000F006070A17801208840E08061780120FF
:104680008840A080323CBAF1010F12D1208F184926
:10469000098808431649088094F83400134931F812
:1046A0001000E18E084394F83410104A22F81100EB
:1046B00026E0E6698EB17089218F0843708194F8F5
:1046C000341006F10C0030F81100E18E084394F824
:1046D000342006F10C0111E015E011E05500002036
:1046E00064000020C03D002040000020B03B0020BE
:1046F0005A000020570000205600002021F8120028
:104700006E4840F829406E48006890F8300040F04C
:1047100010006B49096881F8300000206849096879
:1047200081F83100664903980968C8622846FEF797
:10473000C7FE019801F052FAFEF712FD01F04AFAA5
:1047400001905F48006890F8310020B1012809D03D
:10475000022806D102E0002038700BE00E203870ED
:1047600008E000BF294656480068FEF741FE0A20CF
:10477000387000BF00BF00205149096881F830003F
:104780004F49096881F831004D490968C8610198AD
:1047900001F024FA00BFEAE62DE9F04104460027C3
:1047A0004848007810B10520BDE8F0812078042841
:1047B00001D00120F8E701F00DFA07462089061222
:1047C000257A3F4960680968884204D0384601F07C
:1047D00005FA6420E8E73A48006890F83200B042F1
:1047E00004D1294636480068FFF7F5FD012033491A
:1047F00041F82600608908B300231022194620469C
:10480000FEF70CFE0546208900F47F4020812089B8
:1048100028432081294850F825006060B54206DC15
:10482000384601F0DBF9FEF79BFC7820BCE7384600
:1048300001F0D4F9FEF794FC0020B5E7208940F0A0
:10484000FF00208100206060384601F0C7F9002099
:10485000AAE72DE9F04705460C464FF00009194834
:10486000007810B10620BDE8F0872878042801D030
:104870000120F8E701F0AEF9814628890012207581
:10488000287AE074E07CFF2802D10120A07401E0C6
:104890000020A0746889208205F10C0826460027B4
:1048A00005E038F8020B26F8020B781CC7B2082F77
:1048B000F7D3484601F092F90020D4E7C03D00202C
:1048C00064000020550000202DE9F04106460D4609
:1048D0004FF000083078022804D001202870002012
:1048E000BDE8F08101F076F980467468E08A78B11D
:1048F0002169081D20610F68E08A401EE082A168DE
:104900002069884201D1606820610020287002E09F
:104910001F2028700027404601F060F93846DFE785
:104920002DE9F04106460F464FF00008F7480078A1
:1049300010B10020BDE8F08101F04CF98046F44848
:104940000568006820B1F24800684068F0490860D6
:10495000404601F043F93DB301F03CF98046ED4893
:104960000468C4B100680068EA490860404601F084
:1049700035F9666006EB8700A060E6602661A782D5
:104980000020E08202202870002028816C602846E8
:10499000FEF7CFFD08E0DE4800686860DC4805608F
:1049A000404601F01BF900252846C3E72DE9F047F2
:1049B0000446894615464FF0000A2078022804D0A4
:1049C000012028702046BDE8F087D048007818B153
:1049D0000F2028702046F6E701F0FCF88246608937
:1049E00010B14FF0010801E04FF00008B9F1000FDD
:1049F00003D0B9F1010F45D11FE0B8F1000F15D177
:104A00006668C44800683060C248066000202070B4
:104A1000BF480068606000202081BD4804605046A7
:104A200001F0DCF800202870002705E0504601F076
:104A3000D5F84920287027462BE005E00023042202
:104A400019462046FEF7EAFC60890028F6D1666820
:104A5000B04800683060AF48066000202070AC4865
:104A60000068606000202081A9480460504601F081
:104A7000B5F8B8F1010F01D1FEF772FB00202870E4
:104A8000002706E0504601F0A9F8072028702746C5
:104A900000BF00BF384696E770B50546002601F016
:104AA00099F806466C686068E060606820610020E4
:104AB000E082304601F092F8002070BD2DE9F04709
:104AC0000746884615464FF000093878022804D07A
:104AD000012028700020BDE8F0878C48007818B1CC
:104AE000022028700020F6E78B48007818B10D20CE
:104AF00028700020EFE701F06DF881467C68E08ABD
:104B000098B12169081D20610E68E08A401EE0828C
:104B1000A1682069884201D160682061484601F09F
:104B20005DF8002028703046D5E77C48006890F892
:104B3000300040F004007949096881F83000002015
:104B40007649096881F8310074480068C0F82C8003
:104B50003846FEF7B5FC484601F040F8FEF700FB8A
:104B600001F038F881466D48006890F8310020B1B6
:104B700001280DD002280AD105E068480068066ABD
:104B8000002028700DE000260E20287009E000BFEC
:104B9000394662480068FEF72BFC00260A20287080
:104BA00000BF00BF00205D49096881F830005B4903
:104BB000096881F8310059490968C861574909688D
:104BC0000862484601F00AF8304684E72DE9F041D2
:104BD00004460F4615464FF000082078022804D0FE
:104BE000012028700020BDE8F08100F0F3FF80462E
:104BF000608920B300267FB1012F0CD107E002238A
:104C0000042200212046FEF709FC701CC6B2608910
:104C10000028F4D109E000BF02230422002120462D
:104C2000FEF7FCFB701CC6B200BF00BF404600F0A0
:104C3000D5FFFEF795FA0E2028703046D3E74046A0
:104C400000F0CCFF0020287000BFCCE72DE9F04138
:104C500005460E4600272878022802D00120BDE82C
:104C6000F08100F0B7FF0746688960B10023042295
:104C700031462846FEF7D2FB384600F0AFFFFEF77C
:104C80006FFA0020EBE76C68E08AA18A884204DBB7
:104C9000384600F0A3FF1E20E1E7E168081DE06050
:104CA0000E60E08A401CE082D4E90210884201D103
:104CB0006068E060384600F091FF0020CFE72DE902
:104CC000F04105460E4600272878022802D0012030
:104CD000BDE8F08100F07EFF0746688960B10023DF
:104CE000042231462846FEF799FB384600F076FF4D
:104CF000FEF736FA0020EBE76C68E08AA18A88426A
:104D00000EDB384600F06AFF1E20E1E75500002068
:104D100040000020780000205600002064000020A1
:104D200061682069884201D1A06820612069001F64
:104D3000206120690660E08A401CE082384600F06D
:104D40004DFF0020C4E72DE9F04105460F46164609
:104D50004FF000082878022802D00120BDE8F08139
:104D600000F038FF80466889E8B106F0010050B1D4
:104D700005E00023042239462846FEF74FFB6889E8
:104D80000028F6D105E00023042239462846FEF724
:104D900045FB404600F022FF06F0040008B9FEF78C
:104DA000DFF90020DAE76C68E08AA18A884204DB38
:104DB000404600F013FF1E20D0E706F0020058B175
:104DC00061682069884201D1A06820612069001FC4
:104DD00020612069076009E0E168081DE0600F605C
:104DE000D4E90210884201D16068E060E08A401C8A
:104DF000E082404600F0F2FE0020AFE72DE9F047E8
:104E000005460C464FF0000A2878022802D00120FF
:104E1000BDE8F08700F0DEFE82466889208305F158
:104E20000C0804F10809002705E038F8020B29F8FE
:104E3000020B781CC7B2082FF7D36E68F08A18B13E
:104E400030690068206001E000202060F08AA080C6
:104E5000B08AE080504600F0C1FE0020D8E72DE97E
:104E6000F04178211048FEF74DF800240DE0601C59
:104E700086B204EB44000C4901EBC00506EB46008A
:104E800001EBC0072F60601C84B2042CEFD304EB4D
:104E90004400054901EBC00500202860084603498D
:104EA0000860BDE8F0810000704B00207800002011
:104EB00070B5044600262078032801D0002070BD7C
:104EC00000F088FE0646258915B12089401E208104
:104ED000304600F083FE2846F1E770B5054600260F
:104EE000D248007808B1002070BD00F073FE06467D
:104EF000CF480468006820B1CD4800684068CC49BC
:104F00000860304600F06AFE3CB103202070258125
:104F1000002060602046FEF70CFB2046E4E72DE908
:104F2000F0470446884615464FF0000920780328CC
:104F300004D0012028702046BDE8F087BB480078E7
:104F400018B10F2028702046F6E700F043FE814696
:104F5000608908B1012700E00027B8F1000F03D0F5
:104F6000B8F1010F35D117E07FB900202070B048AB
:104F70000068606000202081AD480460484600F071
:104F80002DFE00202870002605E0484600F026FE91
:104F900049202870264623E005E000230122194617
:104FA0002046FEF73BFA60890028F6D12070A04821
:104FB00000686060002020819D480460484600F041
:104FC0000DFE012F01D1FEF7CBF80020287000263E
:104FD00006E0484600F002FE07202870264600BF83
:104FE00000BF3046A8E72DE9F04105460E461446BD
:104FF00000272878032803D001202070BDE8F08125
:105000008A48007810B102202070F7E789480078BC
:1050100010B10D202070F1E700F0DCFD0746288973
:1050200040B12889401E2881384600F0D7FD002075
:105030002070E3E78048006890F8300040F00100FD
:105040007D49096881F8300000207B49096881F8B2
:10505000310079480068C6622846FEF731FA3846C2
:1050600000F0BCFDFEF77CF800F0B4FD0746724886
:10507000006890F8310020B1012809D0022806D13B
:1050800002E0002020700BE00E20207008E000BF3E
:10509000294669480068FEF7ABF90A20207000BF76
:1050A00000BF00206449096881F83000624909683E
:1050B00081F8310060490968C861384600F08EFD0A
:1050C00000BF9BE72DE9F04104460F4615464FF01F
:1050D00000082078032804D0012028700020BDE8B3
:1050E000F08100F077FD8046608920B300267FB113
:1050F000012F0CD107E00223012200212046FEF7F8
:105100008DF9701CC6B260890028F4D109E000BF97
:105110000223012200212046FEF780F9701CC6B24E
:1051200000BF00BF404600F059FDFEF719F80E2001
:1051300028703046D3E7404600F050FD002028702C
:1051400000BFCCE770B5044600252078032801D0C5
:10515000012070BD00F03EFD0546608960B100236E
:10516000012219462046FEF759F9284600F036FD7F
:10517000FDF7F6FF0020ECE720894FF6FF7188422B
:1051800007D22089401C2081284600F027FD0020FE
:10519000DFE7284600F022FD3320DAE72DE9F0476B
:1051A00004460D464FF000092078032802D0012064
:1051B000BDE8F08700F00EFD81466089688204F149
:1051C0000C0705F10208002605E037F8020B28F865
:1051D000020B701CC6B2082EF7D3208928804846DF
:1051E00000F0FCFC0020E3E72DE9F04104460E4608
:1051F000154600272078032803D001202870BDE839
:10520000F08100F0E7FC074600202870208908B1F3
:10521000268105E0608908B9268101E049202870CF
:10522000384600F0DBFC00BFE9E700005500002035
:105230004000002056000020640000202DE9FF5FA0
:10524000814688460020009000F0C4FC0090F94898
:1052500050F8280030B1009800F0C0FC282004B0BD
:10526000BDE8F09FB9F1FF0F03D1F348006890F853
:105270003290F04850F8294024B9009800F0AEFC74
:105280002920ECE7012C04D1009800F0A7FC432072
:10529000E5E74FEA181708F00F0003900120B84027
:1052A0001FFA80FA0121039881401FFA81FB002038
:1052B000E04941F82900084640F8284094F8346055
:1052C000208F0290E08E0190DC4830F81610019893
:1052D0000140F9B1D94830F8160001998843D749FF
:1052E00021F81600084630F8160028B9D44800887E
:1052F00002998843D2490880D148008840EA0A00D0
:10530000CF490880CD4830F8170040EA0B00CB4960
:1053100021F81700E569FDB105F10C0030F8160021
:105320000199884305F10C0121F81600084630F870
:10533000160018B96889029988436881688940EA2B
:105340000A00688105F10C0030F8170040EA0B00F4
:1053500005F10C0121F8170084F8328084F83470CC
:10536000039884F83300A4F838A0A4F836B0009865
:1053700000F034FCB3480078012801D1FDF7F0FEBD
:1053800000206CE72DE9FE4F06460F4690461C466E
:105390004FF0000900F01EFC8146AB48007828B1B0
:1053A000484600F01BFC3C20BDE8FE8FA14850F8A9
:1053B000240060BB01209F4941F82400484600F0CA
:1053C0000DFC002342463946304600F063FC82461D
:1053D000002000900190034602465146029020466C
:1053E000FEF7CAF8054635B99648007801280CD171
:1053F000FDF7B6FE09E000F0EDFB814600208D4987
:1054000041F82400484600F0E9FB2846CCE748462E
:1054100000F0E4FB2820C7E702F0010343B102F0EB
:1054200002032BB102E0491E002308C00029FAD173
:1054300070472DE9F04F85B081468A4693461C4659
:10544000DDE90F78129D0020039000F0C3FB03906C
:105450007D48007830B1039800F0C0FB3C2005B0D7
:10546000BDE8F08F734850F8240088BB01207149D3
:1054700041F82400039800F0B1FB2A464146384623
:10548000FFF7CAFF2B465A465146484600F002FC39
:1054900004901198CDE9008002953A4620460E9B73
:1054A0000499FEF769F8064636B96648007801287F
:1054B0000CD1FDF755FE09E000F08CFB03900020B5
:1054C0005C4941F82400039800F088FB3046C6E7A9
:1054D000FFE7039800F082FB2820C0E72DE9F041A8
:1054E000054600275848007810B14020BDE8F081FB
:1054F0007F2D01D13E20F9E700F06CFB0746FF2D20
:1055000003D14D48006890F832504A4850F8254081
:1055100024B9384600F062FB4320E7E7012C04D1B0
:10552000384600F05BFB3D20E0E714F8340F4349B8
:1055300031F81000618888432178404A22F8110030
:1055400014F83409114631F8100028B9218F3C486D
:10555000008888433A490880E06918B12046E1692B
:10556000FDF746FF666A16B13046FEF766F9002081
:10557000E06284F8300084F8310034480078FF2875
:1055800004D232480078401C30490870384600F098
:1055900025FBFDF72CFF00F01DFB07462B4800788C
:1055A00020B12A480078401E28490870204600F0A3
:1055B0006EFB27480078401E2549087000201D49D1
:1055C00041F82500A06930B900206169886121494E
:1055D0006069086005E0D4E905014861D4E9051077
:1055E00088611D48006860611B4804601BA020653D
:1055F000384600F0F3FA13480078012801D1FDF78E
:10560000AFFD002072E72DE9F041044600277F2C12
:1056100002D13E20BDE8F081FF2C21D100F0DAFA62
:1056200007460548006890F83A60384600F0D6FA18
:105630003046EFE7C03D002064000020B03B002072
:105640005A0000205C000020550000205600002079
:105650005D00002070000020680000203F00000076
:1056600000F0B8FA0746E84850F8245025B9384603
:1056700000F0B4FA4320CDE7012D04D1384600F004
:10568000ADFA3D20C6E73F2085F83A00384600F0E5
:10569000A5FA0020BEE72DE9F04706460F4614465E
:1056A0004FF00008D948007820B111202070002068
:1056B000BDE8F08700F08EFA8046FF2E03D1D44873
:1056C000006890F83260D04850F8265035B940460E
:1056D00000F084FA432020700020E9E7012D06D174
:1056E000404600F07BFA432020700020E0E7286D60
:1056F00038603868FDF736FF8146404600F06EFAA4
:10570000002020704846D3E72DE9F04106460F46B9
:1057100014464FF00008BD48007818B112202070E0
:10572000BDE8F08100F056FA8046FF2E03D1B8485C
:10573000006890F83260B44850F826502DB94046C1
:1057400000F04CFA43202070EAE7012D05D14046D5
:1057500000F044FA43202070E2E72F65404600F055
:105760003DFA0020207000BFDAE770B5054600263C
:1057700000F030FA0646A44850F8254024B93046D7
:1057800000F02CFA462070BD012C04D1304600F008
:1057900025FA4320F7E794F8300000F0080070B3D2
:1057A00014F8300F00F0F700207014F8300908BB2F
:1057B000E06AD8B9208F974909880843954908803D
:1057C00094F83400944931F81000E18E084394F8BD
:1057D0003410914A22F81100304600F0FFF98F484A
:1057E0000078012809D1FDF7BBFC06E0304600F047
:1057F000F5F902E0304600F0F1F90020C3E7FFE7D9
:10580000304600F0EBF94420BDE72DE9F0470746AC
:105810000D464FF0000A00202860686000F0DAF9B9
:105820008246FF2F03D17A48006890F8327076489C
:1058300050F827402CB9504600F0D0F94320BDE87D
:10584000F087012C04D1504600F0C8F94320F6E758
:10585000207C00F0010020B9504600F0BFF945203F
:10586000EDE70026D4F80C90D4F80880504600F0FC
:10587000B5F900E0761C58F8041B0029FAD0B000F6
:105880002860A9EB0600800068600020D7E72DE9BA
:10589000F04105464FF0000800F09CF98046FF2DCE
:1058A00005D15B48006890F83250012608E058485E
:1058B000006890F83200A84201D1012600E00026DD
:1058C000514850F825402CB9404600F087F948204F
:1058D000BDE8F081012C04D1404600F07FF943205F
:1058E000F6E794F834704C4830F81700E18E88439E
:1058F000494921F81700084630F8170028B9218FC8
:105900004448008888434349088094F8300040F0B8
:10591000080084F83000404600F060F9012E01D103
:10592000FDF71EFC0020D3E72DE9F04105460E46A9
:10593000002700F04FF90746FF2D03D134480068D7
:1059400090F83250304850F825402CB9384600F0D5
:1059500045F92920BDE8F081012C04D1384600F03A
:105960003DF94320F6E7582221463046FDF7F0FD89
:10597000384600F033F90020ECE72DE9F047044603
:105980000E4617464FF0000900F024F98146FF2C1F
:1059900002D11F48056802E01B4850F8245005F169
:1059A000540050F82680484600F018F9002038705E
:1059B0004046BDE8F0872DE9F04704460E461746FD
:1059C00098464FF0000900F005F98146FF2C02D1FE
:1059D0000F48056802E00C4850F8245005F15400C7
:1059E00040F82670484600F0F9F8002088F80000DA
:1059F000BDE8F08710B50648006800F09BF9FF206D
:105A0000FFF76CFD10BD0000C03D002055000020D8
:105A1000640000205A000020B03B00205C00002001
:105A200070B5054600266448007800B170BD634833
:105A3000007800B1FAE725B300F0CCF806466048DC
:105A4000006890F834405F4830F814005C490968F9
:105A5000C98E88435B4921F81400084630F81400C9
:105A600038B957480068018F57480088884356491D
:105A7000088053480068C562304600F0AFF8FDF773
:105A80006FFB00BFD2E72DE9F04104460D461646F4
:105A90001F464948007810B15520BDE8F0814748BD
:105AA000007808B13220F8E7B81CC82148434FF409
:105AB0007A71B0FBF1F14FF461606043C5EB051200
:105AC00000EB8200304400EBC00202EB001001EB5F
:105AD000C0084046FFF7A4FF0020DEE770B505468A
